{
  "_format": "hh-sol-artifact-1",
  "contractName": "ProductAuth",
  "sourceName": "contracts/ProductAuth.sol",
  "abi": [
    {
      "inputs": [],
      "stateMutability": "nonpayable",
      "type": "constructor"
    },
    {
      "anonymous": false,
      "inputs": [
        {
          "indexed": false,
          "internalType": "string",
          "name": "productId",
          "type": "string"
        },
        {
          "indexed": false,
          "internalType": "address",
          "name": "creator",
          "type": "address"
        },
        {
          "indexed": false,
          "internalType": "string",
          "name": "metadataURI",
          "type": "string"
        }
      ],
      "name": "ProductCreated",
      "type": "event"
    },
    {
      "anonymous": false,
      "inputs": [
        {
          "indexed": false,
          "internalType": "string",
          "name": "productId",
          "type": "string"
        }
      ],
      "name": "ProductVerified",
      "type": "event"
    },
    {
      "inputs": [],
      "name": "admin",
      "outputs": [
        {
          "internalType": "address",
          "name": "",
          "type": "address"
        }
      ],
      "stateMutability": "view",
      "type": "function"
    },
    {
      "inputs": [
        {
          "internalType": "string",
          "name": "_productId",
          "type": "string"
        }
      ],
      "name": "getProduct",
      "outputs": [
        {
          "components": [
            {
              "internalType": "string",
              "name": "productId",
              "type": "string"
            },
            {
              "internalType": "address",
              "name": "creator",
              "type": "address"
            },
            {
              "internalType": "string",
              "name": "metadataURI",
              "type": "string"
            },
            {
              "internalType": "bool",
              "name": "isVerified",
              "type": "bool"
            }
          ],
          "internalType": "struct ProductAuth.Product",
          "name": "",
          "type": "tuple"
        }
      ],
      "stateMutability": "view",
      "type": "function"
    },
    {
      "inputs": [
        {
          "internalType": "string",
          "name": "",
          "type": "string"
        }
      ],
      "name": "products",
      "outputs": [
        {
          "internalType": "string",
          "name": "productId",
          "type": "string"
        },
        {
          "internalType": "address",
          "name": "creator",
          "type": "address"
        },
        {
          "internalType": "string",
          "name": "metadataURI",
          "type": "string"
        },
        {
          "internalType": "bool",
          "name": "isVerified",
          "type": "bool"
        }
      ],
      "stateMutability": "view",
      "type": "function"
    },
    {
      "inputs": [
        {
          "internalType": "string",
          "name": "_productId",
          "type": "string"
        },
        {
          "internalType": "string",
          "name": "_metadataURI",
          "type": "string"
        }
      ],
      "name": "registerProduct",
      "outputs": [],
      "stateMutability": "nonpayable",
      "type": "function"
    },
    {
      "inputs": [
        {
          "internalType": "string",
          "name": "_productId",
          "type": "string"
        }
      ],
      "name": "verifyProduct",
      "outputs": [],
      "stateMutability": "nonpayable",
      "type": "function"
    }
  ],
  "bytecode": "0x608060405234801561001057600080fd5b50336000806101000a81548173ffffffffffffffffffffffffffffffffffffffff021916908373ffffffffffffffffffffffffffffffffffffffff1602179055506111cb806100606000396000f3fe608060405234801561001057600080fd5b50600436106100575760003560e01c80630186a4231461005c57806368111cce1461008f5780638fbd0dcf146100bf57806392efc453146100db578063f851a440146100f7575b600080fd5b610076600480360381019061007191906109b1565b610115565b6040516100869493929190610ad5565b60405180910390f35b6100a960048036038101906100a491906109b1565b610298565b6040516100b69190610bfa565b60405180910390f35b6100d960048036038101906100d49190610c1c565b610465565b005b6100f560048036038101906100f091906109b1565b610642565b005b6100ff6107f3565b60405161010c9190610c94565b60405180910390f35b60018180516020810182018051848252602083016020850120818352809550505050505060009150905080600001805461014e90610cde565b80601f016020809104026020016040519081016040528092919081815260200182805461017a90610cde565b80156101c75780601f1061019c576101008083540402835291602001916101c7565b820191906000526020600020905b8154815290600101906020018083116101aa57829003601f168201915b5050505050908060010160009054906101000a900473ffffffffffffffffffffffffffffffffffffffff169080600201805461020290610cde565b80601f016020809104026020016040519081016040528092919081815260200182805461022e90610cde565b801561027b5780601f106102505761010080835404028352916020019161027b565b820191906000526020600020905b81548152906001019060200180831161025e57829003601f168201915b5050505050908060030160009054906101000a900460ff16905084565b6102a0610817565b6001826040516102b09190610d4b565b90815260200160405180910390206040518060800160405290816000820180546102d990610cde565b80601f016020809104026020016040519081016040528092919081815260200182805461030590610cde565b80156103525780601f1061032757610100808354040283529160200191610352565b820191906000526020600020905b81548152906001019060200180831161033557829003601f168201915b505050505081526020016001820160009054906101000a900473ffffffffffffffffffffffffffffffffffffffff1673ffffffffffffffffffffffffffffffffffffffff1673ffffffffffffffffffffffffffffffffffffffff1681526020016002820180546103c190610cde565b80601f01602080910402602001604051908101604052809291908181526020018280546103ed90610cde565b801561043a5780601f1061040f5761010080835404028352916020019161043a565b820191906000526020600020905b81548152906001019060200180831161041d57829003601f168201915b505050505081526020016003820160009054906101000a900460ff1615151515815250509050919050565b600073ffffffffffffffffffffffffffffffffffffffff1660018360405161048d9190610d4b565b908152602001604051809103902060010160009054906101000a900473ffffffffffffffffffffffffffffffffffffffff1673ffffffffffffffffffffffffffffffffffffffff1614610515576040517f08c379a000000000000000000000000000000000000000000000000000000000815260040161050c90610dae565b60405180910390fd5b60405180608001604052808381526020013373ffffffffffffffffffffffffffffffffffffffff1681526020018281526020016000151581525060018360405161055f9190610d4b565b908152602001604051809103902060008201518160000190816105829190610f84565b5060208201518160010160006101000a81548173ffffffffffffffffffffffffffffffffffffffff021916908373ffffffffffffffffffffffffffffffffffffffff16021790555060408201518160020190816105df9190610f84565b5060608201518160030160006101000a81548160ff0219169083151502179055509050507fa0358277d8051737264f9630ff0ee215c92944f13dea877aea31b79810d347c082338360405161063693929190611056565b60405180910390a15050565b60008054906101000a900473ffffffffffffffffffffffffffffffffffffffff1673ffffffffffffffffffffffffffffffffffffffff163373ffffffffffffffffffffffffffffffffffffffff16146106d0576040517f08c379a00000000000000000000000000000000000000000000000000000000081526004016106c7906110e7565b60405180910390fd5b600073ffffffffffffffffffffffffffffffffffffffff166001826040516106f89190610d4b565b908152602001604051809103902060010160009054906101000a900473ffffffffffffffffffffffffffffffffffffffff1673ffffffffffffffffffffffffffffffffffffffff1603610780576040517f08c379a000000000000000000000000000000000000000000000000000000000815260040161077790611153565b60405180910390fd5b600180826040516107919190610d4b565b908152602001604051809103902060030160006101000a81548160ff0219169083151502179055507f9bb3d92ff53ce504ee358d5ff79f13221b4836773184e8ec3e9e299f7d032aee816040516107e89190611173565b60405180910390a150565b60008054906101000a900473ffffffffffffffffffffffffffffffffffffffff1681565b604051806080016040528060608152602001600073ffffffffffffffffffffffffffffffffffffffff168152602001606081526020016000151581525090565b6000604051905090565b600080fd5b600080fd5b600080fd5b600080fd5b6000601f19601f8301169050919050565b7f4e487b7100000000000000000000000000000000000000000000000000000000600052604160045260246000fd5b6108be82610875565b810181811067ffffffffffffffff821117156108dd576108dc610886565b5b80604052505050565b60006108f0610857565b90506108fc82826108b5565b919050565b600067ffffffffffffffff82111561091c5761091b610886565b5b61092582610875565b9050602081019050919050565b82818337600083830152505050565b600061095461094f84610901565b6108e6565b9050828152602081018484840111156109705761096f610870565b5b61097b848285610932565b509392505050565b600082601f8301126109985761099761086b565b5b81356109a8848260208601610941565b91505092915050565b6000602082840312156109c7576109c6610861565b5b600082013567ffffffffffffffff8111156109e5576109e4610866565b5b6109f184828501610983565b91505092915050565b600081519050919050565b600082825260208201905092915050565b60005b83811015610a34578082015181840152602081019050610a19565b60008484015250505050565b6000610a4b826109fa565b610a558185610a05565b9350610a65818560208601610a16565b610a6e81610875565b840191505092915050565b600073ffffffffffffffffffffffffffffffffffffffff82169050919050565b6000610aa482610a79565b9050919050565b610ab481610a99565b82525050565b60008115159050919050565b610acf81610aba565b82525050565b60006080820190508181036000830152610aef8187610a40565b9050610afe6020830186610aab565b8181036040830152610b108185610a40565b9050610b1f6060830184610ac6565b95945050505050565b600082825260208201905092915050565b6000610b44826109fa565b610b4e8185610b28565b9350610b5e818560208601610a16565b610b6781610875565b840191505092915050565b610b7b81610a99565b82525050565b610b8a81610aba565b82525050565b60006080830160008301518482036000860152610bad8282610b39565b9150506020830151610bc26020860182610b72565b5060408301518482036040860152610bda8282610b39565b9150506060830151610bef6060860182610b81565b508091505092915050565b60006020820190508181036000830152610c148184610b90565b905092915050565b60008060408385031215610c3357610c32610861565b5b600083013567ffffffffffffffff811115610c5157610c50610866565b5b610c5d85828601610983565b925050602083013567ffffffffffffffff811115610c7e57610c7d610866565b5b610c8a85828601610983565b9150509250929050565b6000602082019050610ca96000830184610aab565b92915050565b7f4e487b7100000000000000000000000000000000000000000000000000000000600052602260045260246000fd5b60006002820490506001821680610cf657607f821691505b602082108103610d0957610d08610caf565b5b50919050565b600081905092915050565b6000610d25826109fa565b610d2f8185610d0f565b9350610d3f818560208601610a16565b80840191505092915050565b6000610d578284610d1a565b915081905092915050565b7f50726f6475637420616c72656164792065786973747300000000000000000000600082015250565b6000610d98601683610a05565b9150610da382610d62565b602082019050919050565b60006020820190508181036000830152610dc781610d8b565b9050919050565b60008190508160005260206000209050919050565b60006020601f8301049050919050565b600082821b905092915050565b600060088302610e307fffffffffffffffffffffffffffffffffffffffffffffffffffffffffffffffff82610df3565b610e3a8683610df3565b95508019841693508086168417925050509392505050565b6000819050919050565b6000819050919050565b6000610e81610e7c610e7784610e52565b610e5c565b610e52565b9050919050565b6000819050919050565b610e9b83610e66565b610eaf610ea782610e88565b848454610e00565b825550505050565b600090565b610ec4610eb7565b610ecf818484610e92565b505050565b5b81811015610ef357610ee8600082610ebc565b600181019050610ed5565b5050565b601f821115610f3857610f0981610dce565b610f1284610de3565b81016020851015610f21578190505b610f35610f2d85610de3565b830182610ed4565b50505b505050565b600082821c905092915050565b6000610f5b60001984600802610f3d565b1980831691505092915050565b6000610f748383610f4a565b9150826002028217905092915050565b610f8d826109fa565b67ffffffffffffffff811115610fa657610fa5610886565b5b610fb08254610cde565b610fbb828285610ef7565b600060209050601f831160018114610fee5760008415610fdc578287015190505b610fe68582610f68565b86555061104e565b601f198416610ffc86610dce565b60005b8281101561102457848901518255600182019150602085019450602081019050610fff565b86831015611041578489015161103d601f891682610f4a565b8355505b6001600288020188555050505b505050505050565b600060608201905081810360008301526110708186610a40565b905061107f6020830185610aab565b81810360408301526110918184610a40565b9050949350505050565b7f4f6e6c792061646d696e2063616e207665726966790000000000000000000000600082015250565b60006110d1601583610a05565b91506110dc8261109b565b602082019050919050565b60006020820190508181036000830152611100816110c4565b9050919050565b7f50726f6475637420646f6573206e6f7420657869737400000000000000000000600082015250565b600061113d601683610a05565b915061114882611107565b602082019050919050565b6000602082019050818103600083015261116c81611130565b9050919050565b6000602082019050818103600083015261118d8184610a40565b90509291505056fea2646970667358221220f1000e1c945c58bfd68a67df24d84e67c8148fa03f5b7f199d1a1f738669fb5164736f6c63430008140033",
  "linkReferences": {},
  "deployedLinkReferences": {}
}